:020000040800F2
:1000000000000110B540020883C10108811C0208EC
:1000100059410208594102085941020800000000F4
:1000200000000000000000000000000081C1010885
:100030007FC10108000000007DC101088957010847
:100040005941020859410208594102085941020820
:100050005941020859410208CFD10008CDD100080A
:1000600059410208CBD10008C9D10008E933000882
:10007000D9330008C9330008B9330008A933000890
:10008000953300088133000859410208594102089C
:10009000594102085941020859410208C7D10008D4
:1000A00085540108E154010859410208F15401083E
:1000B000D5540108C55401085941020859410208A4
:1000C00059410208594102085941020859410208A0
:1000D000594102088D340008594102088134000852
:1000E000C5D10008594102089DC201087554010894
:1000F0009554010859410208A55401086D330008C0
:100100005941020859410208B554010859410208F1
:10011000594102085941020859410208594102084F
:100120005933000845330008313300081D330008F7
:10013000093300085941020859410208594102088F
:10014000594102085941020859410208ADBB010852
:10015000F5320008E1320008CD320008753400089D
:1001600059410208594102085941020859410208FF
:1001700059410208594102085941020859410208EF
:0801800059410208594102082F
:10018800B04B9FEDB17A1B689B6A2DE9F04F07EEE3
:10019800903AAE4FF8EEE77A2DED088B67EE877A46
:1001A8003B60AB4BC3ED007AAA4B9DB05A790693DE
:1001B80004460D460AB911F049F9069B5B79022BF2
:1001C80009D0A54B1B689A0705D51CF0A6F8204650
:1001D80029461CF04DFBA14B05931A79DFF8C49210
:1001E800002A00F081809E4B9E4C1B6813F0100380
:1001F80004D1ADF85030ADF8523040E09A4B1D684C
:10020800B4F90830B5F9540000EE103AB8EEC00A57
:100218001EF092F9B4F90A30ADF8500000EE103A29
:10022800B5F95600B8EEC00A1EF086F98F4BADF846
:1002380052001B689FED8E6ADB7906EE903AB4F99E
:100248000C30F8EEE66A07EE103AF2EE047A66EE43
:10025800A76AB8EEC77A37EE267A76EEA66A27EE50
:10026800067AC7EE267A9FED837A77EEC67A77EE1E
:10027800877AF1EE677AFDEEE77A17EE903AADF8F5
:1002880054302388ADF856307B4BB9F816001968FE
:100298007A4B1D88E37901F4805103EB8304002332
:1002A800774A1E1932445278012A0BD005D3022A04
:1002B80016D114AA32F813600FE0059A02EB430234
:1002C800568D0AE0032B6F4A01D0002606E000296C
:1002D8000CBF2E460646D68002E06A4A22F8136012
:1002E8000133042BDCD19CE0604BDFF8BCA1D3F8D0
:1002F80000B0DFF8B8819BF802409AF80060B8F9BE
:100308000000604D3246214611F01AFC0490BDF8F9
:100318001030B8F902002B803246214611F010FC4B
:1003280068809BF809109AF801200646B8F904007D
:1003380011F006FCB8F90610B9F818304042994295
:10034800A88005DBB1F5FA6FA8BF4FF4FA6100E0A9
:100358001946C91A4FF47A7251434B4A4948C3F5B2
:10036800FA63B1FBF3F16FF063034FF0640C91FB98
:10037800FCF803FB081332F818E008F1010832F919
:1003880018100FFA8EF28A1A0599C9785A4392FB07
:10039800FCF37344EB80314A00293AD03B4B1B688D
:1003A8005B063ED53A4BDFED3B7AB3F904300A22BF
:1003B80093FBF2F3384A12889B1A1BB208EE103AE4
:1003C800B8EEC88A28EE278AB0EE480A22F042FC26
:1003D800F0EE408AB0EE480A22F0DAFB07EE906AA7
:1003E800B8EEE77ADDED047A60EE476AF8EEE77A70
:1003F800E7EEA86A67EE807AFDEEE66AE7EE287A0D
:1004080016EE903AFDEEE77A2B8017EE903A6B8065
:1004180007E001885185418891858188D1851386B7
:10042800BCE71E4C258805F00405ADB21DB10120BE
:1004380020F046FBF7E011F0C1FB194BC0B31D706B
:100448003DE000BFA0720020BD37863520AC0020FB
:100458004C7B0020F87000205C6F00207475002031
:10046800DC7F0020DC780020A0790020487B002079
:1004780000007A440000FA43606F0020527C00209C
:1004880040A40208407B0020EE780020507B00202A
:1004980060AC002035FA8E3C165B00205EAC002074
:1004A800983800204075002026790020BC7500206F
:1004B8001B7823B99F4B0120187020F09BF89E4BA6
:1004C8001E68F50708D4059B93F82930012B02BF55
:1004D800238843F001032380984D2288D5F80080B3
:1004E80044F2FF03134018F0080F238001BF44F2C1
:1004F800FE031340924A43F4807308BF138011F03F
:100508005DFB28B1238823F0010343F400732380A3
:100518008C4B1B88632B81BF238823F0010343F492
:100528008063238016F4804304D0874B3340003324
:1005380018BF0123854A5178924600293FD0844A42
:100548001178844A19B98448C079022806D1117AE9
:1005580031B188F0010808F0010803E0884601E09D
:100568004FF001082188480706D47C49314019B169
:10057800002B08BF4FF0010892F94D27754B002A50
:1005880014DDD3F8B0211492D3F8B4211592D3F81E
:10059800B831169314A811A9012220F069FC11A8FA
:1005A8001DF044FBBAF80C30984202D8B8F1000F9D
:1005B80005D0238823F0010343F400632380684BAC
:1005C8001A68110708D52B68DB055FBF238823F05D
:1005D800010343F480532380960708D52B689D05B3
:1005E8005FBF238823F0010343F40053238018F0EE
:1005F800B1F938B9238823F001036FEA43436FEA5E
:1006080053432380238813F0010F564B14BF002255
:1006180002221A7015F04EF8534B1B68C01A0028B6
:1006280001DB1AF0BBF899F82030002B63D0414D5C
:100638004E4B6C781E785CB911F04AFF234602468F
:100648000121281D9FED4A0A22F00CFB01236B7043
:10065800384D97ED000A281DB8EEC00A21F04DFF6D
:10066800444BBDEEC00A588810EE103A90FBF3F0E8
:10067800441CA4B22C84FEB1B5F822C000232D4D31
:100688003D4A05F12C0605F1240E32F8137036F8B0
:1006980013203EF8131026F81370C2EB070811FB5D
:1006A8000CF122B291FBF2F242442EF813200133EE
:1006B800042BE4D1688402E06B8C013B6B841D4AF7
:1006C800508C03B2002B4FF0000313DDB2F9204029
:1006D8002A4931F81320083112FB00F231F81310BF
:1006E80092FBF4F28A1A244921F813200133042BCF
:1006F800EED100E053841D4B104F1E781E4D0D4C5B
:100708000493002E00F0F4810D4BDFF82C801B8839
:10071800DFF840A013F0040F32D19AF80830002B0C
:1007280062D00AF58070DAF8181107221DF050F926
:100738005AE000BF98380020D87F0020DC7F0020D6
:100748005EAC00205CAC00200001080038470020A7
:1007580023790020509D0020DC7800200003080049
:100768005C6F00209176002094760020645B002066
:10077800F304353FA8750020407B0020BC380020DA
:10078800D8F8003098021DD594F83430EBB1BE4B40
:100798001B6841F2100B03EA0B0BBBF1000F14D1DD
:1007A8009AF808308BB13B68DAF8181113F0010F8A
:1007B8000AF5807014BF052207221DF009F984F894
:1007C80034B002E0012384F834303B68D9070BD5F4
:1007D800AE481DF02BFACAF8A401AC481DF026F962
:1007E800CAF8A8011DF0DAF8A94AAA4B12881B68B2
:1007F800A16BA363520711D55B1A07EE903AA64A7C
:100808009FEDA67ADAED4C6AF8EEE77A67EE877A1A
:1008180092ED007AA6EEA77A82ED007A9AF808306F
:1008280063B13B68D80709D594F83C3033B90E203A
:100838001FF0E0FE9A4B012283F83C209AF80E3014
:1008480033B1D8F8003059025EBF964B0122DA73F3
:10085800D8F80030C3F38052C3F300638AF80E203F
:100868008AF8103017F0E2FC1DF0A1FD9AF800207C
:100878008D4B1C2101FB0233B3F80A8018F4006F7A
:100888005BD0814B1B685A0557D43B6813F0100F97
:10089800864B26D093F803A0B5F90200514622F002
:1008A800E4F880B298B1824B00B29B8A07EE10AA96
:1008B80040425843B8EEC70A07EE900A9FED7D7A8A
:1008C800F8EEE77A37EE400A87EE800A2EE0754B9D
:1008D8001B7B7BB39FED780A00201CF067FF002389
:1008E80028E0764A93F803A0B2F900B0B5F90600FB
:1008F8005146CBEB000022F0B8F880B20028E6D0D1
:100908006F4B6B4A00B20028CCBF59881988928A6D
:10091800CCBFCBEB0101C1EB0B015043CAEB01018A
:1009280090FBF1F300EE103AB8EEC00A01201CF07B
:100938003DFF33465B4A137302E000238AF80C300C
:1009480018F4805F7AD0504B1B685B0576D43B68FF
:1009580013F0100F554B0BD0B5F90000997822F021
:1009680084F800B210F1000B18BF4FF0010B61E0E2
:1009780093F80290B5F90200494622F076F8494604
:100988001FFA80FAB5F9000022F06FF845491FFAFE
:1009980080FBBAF1000F02D1BBF1000F3BD0444AF3
:1009A8009078012842D1528A91ED485AD1ED475AA0
:1009B80091ED056A0FFA8AFAC9F5FA7302FB0AFA89
:1009C8009AFBF3FA07EE90AA0FFA8BFBB8EEE77AD8
:1009D80002FB0BF292FBF3F307EE903AF8EEE77A9C
:1009E80065EEE76A67EE857AE7EE056AE7EE257A4F
:1009F80091ED067AC6EE866AC7EE877A91ED406A6F
:100A080091ED417A76EE266A77EE277AC1ED4D6A46
:100A1800C1ED4E7A0DE0C87A58B114A816F060FC02
:100A280014A8594601221DF031F803E04FF0010BDC
:100A380000E083461B4B83F80BB002E0194B002201
:100A4800DA7218F4005FDFF85C803BD00E4B1B684D
:100A580013F4806336D13A6812F010020DD1B5F95B
:100A680004301249002B8978B8BF5B428B4206DDFF
:100A7800D8F81831C8F84C3102E01E4600E0164696
:100A880088F80D6021E000BF507B0020D49E002034
:100A98005EAC0020C4910020BCA400206F12833AF1
:100AA80098380020509D002058A40208267900207C
:100AB800384700200000FA43000000004C020020E4
:100AC800527C0020002388F80D3098F80020AE4BA7
:100AD8001C2101FB023341F2B8009E89F343184000
:100AE8001CF068FB30461CF075FB98F80030E38773
:100AF800049A94F84080A54E00231370B8F1000FB3
:100B08003CD1A34B9FEDA37AD3ED0C7A86F8B8803D
:100B180077EE877A00220023C6E90023C6E90C2372
:100B2800C6E91023414600234FF4967206F1BC0033
:100B3800C6F8A830C6F8AC30F366C6F88830C6F8F0
:100B480094303367C6F88C30C6F898307367C6F8A7
:100B58009030C6F89C30C6ED287AC6ED297A86F81A
:100B6800788025F0BAFC4FF4967206F5F470414689
:100B780025F0B3FC884B012283F8402014F09AFD3D
:100B8800D4E91223821A61EB03038046894683481D
:100B9800DFF804A2DFED828A0021994208BF904263
:100BA80069D2CAE914239AF858207E4BCAE91289F7
:100BB8003AB3D3ED007A9AED170ADFF818B237EE98
:100BC800C00ADFED797A9BED028AB0EEC00A30EEFA
:100BD800000A80EE270A26F09FFA744BDAED187A9D
:100BE800DBED016AB0EE677A98EE007AE6EE877A76
:100BF800CAED187A67EEA87AFDEEE77AC3ED047AB3
:100C080028E09AED177AD3ED007ADFED696A694B2F
:100C180077EEC77A1B68A7EEA67AF5EEC07AF1EEF2
:100C280010FA8AED177A9FED647A48BFF1EE677A79
:100C3800F4EEC77AF1EE10FA08D5626E9B1AFA2B19
:100C480005D9554B012283F8582000E06366574BBD
:100C580000221A61554BD3ED047A584B1B6898064D
:100C680007D594F8583023B1F8EEE77AC6ED167A2E
:100C780001E00023B3651EF009FC48B90023336680
:100C88007366B3664B4B86F878001B68A366BFE0B3
:100C98004B4BD6ED1B5AD3ED007A96ED1C7A96EDA8
:100CA8001D6A77EEE55AD3ED017A37EEC77AD3EDB0
:100CB800027A444B37EEC66AD3ED077AD3ED066A5B
:100CC80093ED035A67EE277AE6EEA57AD3ED086A24
:100CD800E6EE867AD3ED046AC6ED1A7A67EE266ADE
:100CE800E5EE256A93ED055AE5EE066A93ED015A9D
:100CF80027EE057A93ED005AA5EE257AD3ED025A30
:100D0800314BA5EE867A1B88F1EE666A590786EDA7
:100D1800187AC6ED196A2BD41C4B93F878303BBB74
:100D28002A4B9FED2B6AD3ED016A37EEE67AE7EEA0
:100D3800066AB5EEC07AC3ED016A154B9B7806EEDC
:100D4800903AF1EE10FAF8EEE66A48BFB1EE477A4B
:100D5800B4EEE67A174BF1EE10FA1B6807D5A26ECF
:100D68009B1AFA2B04D9012386F8783000E0A36691
:100D780096F87820054B7AB3144A92ED017A77EE0B
:100D8800C77AC3ED1A7A2BE058A4020848A80020B5
:100D9800844700206F12833A983800209F8601000C
:100DA8000000C8420CA80020CDCC9C3FF071002068
:100DB8009A99193EC49100202DB2813F5C6F0020A2
:100DC800A0780020547B00205EAC00204C0200205C
:100DD8000AD7233BE071002000221A665A669A66F9
:100DE800D6ED187AFDEEE77A17EE903AD6ED197A35
:100DF800A4F86C30FDEEE77A17EE903AD6ED1A7A41
:100E0800A4F86E30FDEEE77A17EE903AA4F8703049
:100E18004046494615F090FBBF4BDFEDC09AB3F949
:100E28000430BF4E03EB83035B0007EE903AB8EE45
:100E3800E78AC6F8183188EE288A4FF0000B44F686
:100E48001F6A28EE298AB0EE480A21F0A1FE86ED35
:100E5800470AB0EE480A21F0FDFED4E91E23B8EB9C
:100E6800020269EB03039B454FF0010008BF92455E
:100E780086ED480A3071AB4980F0A780C1E920238C
:100E8800A94BAA4A93ED287AD2ED0C7AB4EEE77A08
:100E9800F1EE10FA53BF9FEDA61A93ED220AD3ED97
:100EA800230A93ED220A52BFD3ED230A93ED251AA4
:100EB800D3ED261AC1E91E8958BF002099469046ED
:100EC80058BFF0EE411A1DF007F999ED297AD8EDCF
:100ED8000C7A954BB4EEE77AF1EE10FA47BF93ED32
:100EE800240AD3ED270A93ED240ADFED910A4CBFBB
:100EF800012000201DF0B2F899ED2A7A99F8B03057
:100F0800D9F8AC10864A86ED497AC6F828111BB183
:100F180001215172D17001E05372D370854A128851
:100F280052071CD5F3B1D6ED496A7D4BF5EEC06A80
:100F3800F1EE10FA16DDD3ED4B7AF5EEC07AF1EE4C
:100F480010FA09DDF4EEE67AF1EE10FA58BFF0EE89
:100F5800667AC6ED4B7A05E0C3ED4B6A02E0764B44
:100F6800C6F82C31FDEEC77A6E4A6F4E17EE903AEE
:100F7800A2F8883099F8B8300C2202FB039906F1E0
:100F8800880207CA09F1BC0E8EE8070006F1940230
:100F980007CA09F5F47989E80700634A0133D2EDF5
:100FA800287ADBB2182BFCEEE77A88BF002386F894
:100FB800B83017EE903AD2ED297AA4F88A30FCEED0
:100FC800E77A17EE903AA4F88C3014F073FB544E7D
:100FD8008B46F17900238246A4F88E3019B1514B23
:100FE8000122A3F88E20737A2BB1B4F88E3043F027
:100FF8000203A4F88E30337A2BB1B4F88E3043F064
:101008000403A4F88E30484B1B7A2BB1B4F88E3009
:1010180043F01003A4F88E30B37A2BB1B4F88E30B5
:1010280043F02003A4F88E303B6823F080023A6036
:10103800404A128802F0040292B20AB97274B1E30B
:1010480000227271B2713D4832784FF01C0E0EFBCF
:10105800020213F01003B2F80A8005D04046524647
:101068005B4616F0C3FA3DE318F0080FDFF8B090BE
:1010780072D02C4A2B80D2F89000C2F894B0C2F8F3
:1010880090A06B80AB80002940D02D49C0EB0A03AB
:101098008B4206DDC2F898A0C2F89CB016F058F949
:1010A80020E399F80230274C03B3D2F89860264B16
:1010B800C2F898A0C6EB0A069E42C2F89CB010DCA3
:1010C800A38B00EE103AB8EEC00A0120B1EE400A38
:1010D8001CF06CFB304616F0D9F9304616F07CF956
:1010E80001E016F035F9012389F80630B4F9262015
:1010F8001649B9F9683713440A884988934203DBCB
:101108008B42A8BF0B461A46EA80EBE2104B1A88BE
:10111800104BDA80E6E200BF60AC002035FA8E3C66
:10112800509D00209838002048A8002084470020BF
:10113800000000005EAC0020000080BF58A4020838
:10114800400D0300384700203F0D0300527C00206B
:10115800DC780020407B002018F0010F43D0D4F841
:10116800A0309749974AC4F8A0A0C3EB0A038B4262
:10117800C4F8A4B006DDC2F8A8A0C2F8ACB016F056
:10118800E7F830E099F80230C3B1D2F8A830C2F8D5
:10119800ACB0C2F8A8A08C4AC3EB0A03934208DC9F
:1011A8001846049316F072F9049B184616F014F9C1
:1011B80001E016F0CDF8012389F80630834B844905
:1011C800B3F92620834BB3F968371A440B8849884A
:1011D8009A4203DB8A421346A8BF0B46794A9BB260
:1011E800EB80A2F8B03018F0020F00F06F82774958
:1011F800D4F8B8308878C4F8B8A0C3EB0A03C4F8A8
:10120800BCB0744A08B9D47A00E000246C48834220
:101218006C4806DDC0F8C0A0C0F8C4B016F076F877
:1012280054E2127A6B4B002A00F014825A78002A92
:1012380000F03282D0F8C020C0F8C4B0C0F8C0A016
:10124800002C40F00382C2EB0A020BEE902A5E4AA1
:101258001BEE900A904200F3F78193ED40BAD3ED6C
:101268004D7A93ED418A93ED067ADA7A77EECB7A66
:1012780093ED05BA27EE8BBAD3ED4E7A37EEC88ACE
:1012880068EE07AA0AB14B8A2DE0CA89197807EED9
:10129800102A514A1C2000FB01225289500524D5EE
:1012A80093F94D27002A20DD93F96027182101FBC7
:1012B800023393F8AC21012A17D1B3F8BC31DFED22
:1012C800476A1AB207EE902AF8EEE77AF4EEE67A61
:1012D800F1EE10FA09DBF8EEC76AF4EEE67AF1EE01
:1012E80010FA02D89BB207EE103A2AEEAA0AB8EE14
:1012F800479AABEE0B0A25F00FFFB4EEC90AF1EEE0
:1013080010FAC8BFCBEE007A3278334B31494FF030
:101318001C0000FB02335B89C8BF8AEE807AB0EEFE
:10132800408AC2BF29EE27BA69EE07AAB0EE498AF9
:1013380013F4806FB7EE00AA2AD0D1F81831D1F88B
:101348004C01C01A21F0A0FB42F228339842A8BFF2
:101358001846234B9842B8BF184607EE900AB8EED5
:10136800E70A80EE280A20EE290A21F073FCDFED57
:101378001D7A60EE006AF4EEE76AF1EE10FA0AD41C
:10138800F4EE4A6AF1EE10FAC8BFF0EE4A6A04E0D9
:10139800F0EE4A6A01E0F0EE676A88EE097ADFED5E
:1013A800127AB4EEE77AF1EE10FA1FD4B4EE4A7A64
:1013B800F1EE10FAF7EE007AC8BFB0EE677A17E0E0
:1013C800400D0300983800203F0D030038470020E7
:1013D800527C0020509D002058A40208000048427A
:1013E800D8DCFFFFCDCC4C3D0AD7233CB0EE677A62
:1013F800F0EE4A7ADFF89892DFF898B299ED3F6AF2
:10140800E7EE477A47F6FF7A2AEEA68AA6EE67AA9B
:101418006BEE267A28EE0A7A27EE8A0A89ED517A47
:1014280089ED500A25F0AAFB5045A8BF50465845FB
:101438008B4B99ED510A9FED8BAAB8BF5846A3F87C
:10144800C80025F09BFBD9ED517A99ED449A99EDA6
:10145800507A99ED438A824B37EEC99A504537EE58
:10146800488AA8BF504629EE090A5845B8BF5846C9
:10147800A8EE080AA3F8CA0025F04EFEDFED7A7A36
:10148800774BB4EEE70AF1EE10FACABFDFED777AD0
:101498009FED770A87EE800A9A46F8EEEB7AC8BF86
:1014A800B0EEC87A27EE8AAADFED727A6AEE276A6A
:1014B800D3ED347ACCBF20EE077AB0EE407A77EEDF
:1014C800E61AB1EE472AC8BFB0EEC99AF4EEC21ABE
:1014D800C8BF20EE090AF1EE10FA07D4F4EE471A55
:1014E800F1EE10FAC8BFF0EE471A01E0F0EE421A2A
:1014F80077EEA67AF4EEC27AF1EE10FA08D4F4EE9A
:10150800C77AF1EE10FAD4BFB0EE672AB0EE472AD8
:10151800DAED357A37EEE68AB1EE409AB4EEC98A4A
:10152800F1EE10FA07D4B4EE408AF1EE10FAC8BF13
:10153800B0EE408A01E0B0EE498A77EEA67AF4EE82
:10154800C97AF1EE10FA08D4F4EEC07AF1EE10FA86
:10155800D4BFB0EE679AB0EE409A4748D6ED430A3A
:1015680096ED500AB0EE4A1A00211CF09FFEF0EEEC
:10157800481AB0EE492AB0EE4A1AF0EE40AA3F489F
:10158800D6ED440A96ED510A00211CF08FFE3C4826
:101598008AED350AB0EE409A0221F0EE4A0AB0EE22
:1015A8006A0ACAED34AA21F004FC0221B0EE408A8E
:1015B8003448B0EE490AF0EE4A0A21F0FAFBD6EDBB
:1015C800487A96ED477ADFED300A20EE279A20EE2A
:1015D800070AA8EE479AA8EE270A21F067FAB0EEA4
:1015E800408A21F037FBDFED280A29EE000A21F0B6
:1015F8005DFAF2EE047A20EE270A244A80EE290AE0
:1016080092F8242002EB820252005142BDEEC07AC9
:1016180017EE103A8B4203DB9342A8BF134600E053
:101628000B4628EE278AA9F86237C8EE299AFDEEFC
:10163800E97A17EE903A8B4203DB9342A8BF134630
:101648001946A9F8641701E015F060FE104B012255
:101658005A7121E0A3F86427A3F8622736E000BF97
:1016680098380020BD378635CDCCCC3D0000754478
:10167800C23D2D440080D444709D0020949D0020DC
:10168800703900207C3900208F2A754438470020A3
:10169800509D00205A80FFFFC4B9B44BB44E1C685B
:1016A800B6F96437B4F9560000EE103AB8EEC00A3D
:1016B8001CF042FFB6F96237688000EE103AB4F9C0
:1016C8005400B8EEC00A1CF037FF288018F0040F49
:1016D8001FBFA74B6422D3F84C3193FBF2F31CBF16
:1016E800A44A1380A24B5A79984612B1002388F86D
:1016F800013098F8063013B19D4B00229A7098F883
:101708000B209D4B2AB1B3F88E2042F04002A3F87B
:101718008E2098F80C202AB1B3F88E2042F080026F
:10172800A3F88E2098F80D202AB1B3F88E2042F441
:101738008072A3F88E2098ED4D0A904C25F01EFA81
:1017480047F6FF76B042A8BF3046A0428A4B98EDD4
:101758004E0AB8BF2046A3F8F00025F00FFAB042B1
:10176800A8BF3046A042844B98ED4F0AB8BF204628
:10177800A3F8F20025F002FAB042A8BF3046A04212
:101788007D4B98ED540AB8BF2046A3F8F40025F025
:10179800F5F9B042A8BF3046A042774BB8BF204603
:1017A800A3F8F600764B1B78BBB1764BB3F906204D
:1017B800754B1B8B9A4210DC744B1B78012B01D0A4
:1017C800192B02D1724A527A3AB90E2B05D003F07E
:1017D800EF03082B1CBF0023AB80386810F0100003
:1017E80050D1634B1A786B4B1C2101FB02335B8988
:1017F800D90509D4069B1B7A002B43D0664A126888
:1018080092073FD09BB200E06423644E9FED647A58
:10181800D6ED087A634CE9882288F4EEC77AF1EEAF
:1018280010FAF7EE006A00F1AD87F4EE667AF1EE91
:1018380010FAC8BFF0EE667A09B2891A07EE101AD4
:10184800B8EEC76A07EE102AF8EEC75A07EE103A44
:10185800C6EEA77A6188B8EEC77A77EEE67A87EEA1
:10186800287AE7EE876AF0EE657AE6EE267AFDEEEC
:10187800E77A17EE903A934203DB8B42A8BF0B46F8
:101888001A46EA803C4BEA88B3F8F84011B2A14204
:10189800454C1EBFA3F8F820012323702378002BA2
:1018A80000F01E81414B00283FD01A68137AF7EEEA
:1018B800007A002B56D010883A4A1288904251D9A3
:1018C800914222DD801A07EE100A891AF8EEC76ADB
:1018D80007EE101AB8EEC77A86EE877AF6EE006A37
:1018E800B0EE666AA7EE266AB4EEE66AF1EE10FA82
:1018F800B0EE467A0CD4F0EE006AB4EE666AF1EE09
:1019080010FAC8BFB0EE667A04E0B0EE007A01E0E3
:10191800B0EE667A06EE903AF8EEE66A37EE677A47
:10192800C6EEA86AE7EE267A1CE01B681A7A002A37
:101938003ED01B8899423BDB1A4840888142BDBF94
:10194800C91A1B1A4A43C2F16402BDBF92FBF3F3E2
:10195800643307EE903A07EE902AF8EEE77AC7EE7E
:10196800A88A27E0F0EE678A24E000BFA07900206B
:10197800509D00208C7B0020983800205A80FFFF63
:101988001C270020BC75002040750020687C0020C2
:101998002E47002058A40208507B0020547B0020CA
:1019A8009A99193F527C00200C810020487B002026
:1019B800F7EE008A3E68DFF8409306F010064FF015
:1019C800000A4FF0000B4FEA4A08B3EE0FAAF5EEF3
:1019D80000AA6EB31CF01EFED04410F8083007EEC3
:1019E800903AF8EEE77AC7EE8A7A67EEA87A49ED78
:1019F800017A1CF00FFE40444378C9F804B007EEA2
:101A0800903AF8EEE77A67EEAA7A67EEA87AC9ED17
:101A1800007A1CF0FFFD4044837809EE903AF8EE16
:101A2800E97AC7EE8A9A69EEA89AC9ED029A4BE05C
:101A3800BAF1020FB7EE009A0CBFB0EE49BAB0EE99
:101A480068BA1CF0E7FDD0449FED9F9A10F8083063
:101A580009EE903AF8EEE99AC9EE8A9A69EE8B9AFD
:101A680049ED019A1CF0D6FD4044437808EE103A3F
:101A7800B8EEC87A27EE2A8A89ED008A1CF0CAFDDA
:101A880040448378C9F808B007EE103AB8EEC77A30
:101A980087EE097A27EE0B9A89ED019A1CF0BAFDB8
:101AA80010F8082000EB080372B15B7863B189EE87
:101AB800888A89EE299AF0EE007A38EE098A87EE4C
:101AC800888A89ED038A01E0C9F80CB00AF1010A95
:101AD800BAF1030F09F188097FF473AF002323706B
:101AE8001CF03EFE3B68794EDFF810E213F0100F51
:101AF80007D0774B1B68DF0503D529886888AB8832
:101B08001BE09EF80020734B032A198858889B888D
:101B180013D97788B7F5FA7F0FD2B5F90440002CAE
:101B2800B8BF64427A420FFA83FC131B9C4503DB5F
:101B38003B196345A8BF63469BB296F901209EF8FE
:101B48000070DFF8BCE100261BB252425A43B4468B
:101B58003446BE4235DA07EE902A03B206EE903AD2
:101B68000BB2B8EEE77A07EE903A9EED016AF8EE0E
:101B7800E77AF8EEE66A67EE867A9EED026AE6EEA6
:101B8800867A0DF150080FFA84F9DEED036AE7EE64
:101B9800267AFDEEE77ACDED047ABDF8103028F804
:101BA80016300FFA83F8C84504DC0FFA8CF9C845DB
:101BB80002DB23461C46634601360EF1100E9C4696
:101BC800C7E745480368CCEB040213F4805F96B27C
:101BD800424C2CD0424BDFF81CE11B88E988414D70
:101BE80013F0040F404B04BFDA8AAEF85C21DA8A9E
:101BF8003E4B9B880FFA81FCC3EB0208C44502DC0C
:101C08002A88238804E013449C4504DB62886B8897
:101C1800AEF85C110EE0BEF95C314345D5BF2A88A9
:101C28006B8823886288D4BF1146194602E0E98888
:101C380023886288D41A24B235B207EE904AA542A6
:101C48002B4EF8EEE77A5FDD07EE105AF8EEC76A1A
:101C58000122C7EEA66A32700025BD4210DA14AE22
:101C680036F9152007EE102AB8EEC77A26EE877ADD
:101C7800BDEEC77A17EE102A26F815200135ECE7D5
:101C88009FED207A022294FBF2F404FA83F327EE04
:101C9800877A07EE903AF8EEE77AF6EE006AE7EE12
:101CA800667AFDEEE77ACDED047ABDF8103004933C
:101CB800BDF8103004FA83F307EE903AF8EEE77AAD
:101CC800E7EE267A63E000BF0020EE44687C00203F
:101CD800507B0020EC7B0020606F0020527C0020AD
:101CE8005EAC00204C7C0020407500202679002046
:101CF800257C002098380020A8790020247C00202A
:101D080094390020C3F5A83E5FED026A1BB267EE66
:101D1800A67A4FF0000EB6EE007A86F800E00226AA
:101D280095FBF6F594FBF6F41E1967EE876A07EE45
:101D3800106A2B4407EE903AB8EEC77AF8EEE77AC5
:101D480037EE667A12B2F4EEC77AF1EE10FA58BF9F
:101D5800F0EE477AFDEEE77A521BCDED047ABDF836
:101D680010300493BDF8103004FA83F307EE103AEC
:101D780007EE902AB8EEC77AF8EEE77A37EE267AB9
:101D8800F4EEC77AF1EE10FAD8BFF0EE477A6B4A54
:101D98001288FDEEE77A02F00402CDED067A92B2DF
:101DA800BDF818B0002A00F0AA80059A066892F8D3
:101DB8000390634A6348644CB2F95C210692A48894
:101DC800C28ADFF8B4E1141B0794604CBEF80030F7
:101DD8002588BEF80280B4F802C0B4F804E05C4C70
:101DE800089306F010030593E3790E932388594C62
:101DF8000F93246804F08003574C0993B4F9063014
:101E08000A93038B0B931FFA8EF30D93534893B2E7
:101E180006F4805A0C930024BC4269DA14AA32F8FA
:101E280014304F4A1E460BB207EE903A02EB0412EA
:101E380092ED007ABDF91020F8EEE77A67EE877A1E
:101E4800FDEEE77A17EE903A934205DB0FFA8BF234
:101E58009342A8BF13461A46334613449AB220F851
:101E6800022F12B2B9F1000F0AD0724503DB6245A6
:101E7800A8BF624600E07246059B0280F3B935E0D0
:101E8800BAF1000F0FD0069B1E46079B9E4206DC48
:101E9800AA420EDB089B9A42A8BF1A460AE04245AE
:101EA80003DA424606E0AA4203DB6245A8BF62465F
:101EB80000E02A46059B028033B917E00E9B33B930
:101EC8000F9BAB4203D209E0099B3BB902E0B9F191
:101ED800000F0BD10A9B0B9A934207DA0D9B1A4607
:101EE8000C9BBAF1000F18BF1A460280013493E721
:101EF800134C94F85E31002B00F0E2810AE013469F
:101F0800BB42F5DA174A32F81310174A22F81310B1
:101F18000133F5E7154B0B48D3ED005A144B0E4A25
:101F28001B6813F4807F29D012490D88ADF85050F2
:101F38004D88ADF85250898834E000BF5EAC00206F
:101F4800983800204075002026790020527C002017
:101F5800DC780020DC7F0020BC7500203E7C00205F
:101F6800943900205C7C0020407C00204C7B0020C1
:101F7800507B0020407B00204C7C0020BC490D8811
:101F8800ADF850504D88ADF85250BA4D89882D683B
:101F9800ADF85410ED0407D5B2F90660C58AAE4213
:101FA80002DA4942ADF8541013F4804318BFB24B1B
:101FB800B24E18BFDB88ADF86C30B6F902304FF47A
:101FC8007A7103F5E1634B434FF4616593FBF5F3D5
:101FD800A3F5FA73ADF86830B6F9003003F5E1639C
:101FE8005943A74B91FBF5F11B88A1F5FA71A3F2B0
:101FF800DC53ADF86A10ADF856301188C38AC91A97
:10200800ADF858105188C91AADF85A109188C91AF4
:10201800ADF85C10D188C91AADF85E101189C91ADB
:10202800ADF860105189C91AADF862109189D2894A
:10203800C91AD31AADF86630ADF864100023914F71
:10204800002227F813200133082BF8D18E4B8F4933
:102058001E788F4801EB8606B1428E4D57D011F895
:1020680001CC11F802EC1CAB03EB4C0333F9203C18
:1020780007EE103A4B7803EB83035B0007EE903AC8
:10208800F8EEE77AB8EEC77AF5EEC07AF1EE10FA14
:1020980016DD67EEA57A90ED006A76EE676AB4EE13
:1020A800E67AF1EE10FA08D476EE276AB4EEE67A0C
:1020B800F1EE10FAD8BFF0EE476AC0ED006A01E011
:1020C80080ED007A012303FA0CF3F0EC017A4FF06B
:1020D8000C0C0CFB0EFCFDEEE77A55F80C50CDED20
:1020E800047A2B42BDF8102011F9043B18BF4FF0B9
:1020F800FF3513FB02F308BF012564226B4393FBF2
:10210800F2F337F81E20134427F81E30A4E75D4E7B
:10211800DFF894A1A8464FF00009338898F90A20FF
:1021280012FB03F3642293FBF2F39BB233801BB2DE
:1021380007EE903A002BCCBF9AED007A9AED017A1F
:10214800F8EEE77A5FFA89F067EE877AFDEEE77ACC
:1021580017EE903A33801EF06DFB3388B8F80620EE
:102168001844B8F9043000B2984203DB13B2834232
:10217800A8BF034609F10109B9F1080F26F8023B87
:1021880008F10C080AF1080AC7D1434B1B681A0169
:1021980057D594F8E031012B24D003D3022B00F05B
:1021A80085808DE03D4B1B885B0740F189800223C9
:1021B8003B4A0C2101FB035102F5F170098920F813
:1021C800131002F5FA70002140F823100133062B92
:1021D800EED1344BC2F818121B68C2F8143201232E
:1021E80082F8E0312D4B1B885E073CD5D4F81802E5
:1021F8000130C4F818020223DFF8A4E037F91310FD
:102208000EF5FA7252F82360314442F82310013374
:10221800062B1646F0D1234BDEF814221B689B1AB6
:10222800B3F57A7F4CD902230C2202FB035256F8ED
:10223800231091FBF0F10133062B1181F4D1022216
:102248003BE094F8E021164B022A0CD1B3F8E621C2
:102258002A84B3F8E821AA85B3F8EA21B3F8EC3167
:102268002A87A5F84430002384F8E03128E000BF2D
:10227800EC7B0020606F00202E47002060AC00201F
:10228800407C00204A450020288000202D80002026
:10229800F8390020AC800020D87F00205EAC0020F8
:1022A80098380020C4910020383A0020A64B1B889B
:1022B800580705D410F07DF80322A44B83F8E021D9
:1022C800A34E3368990642D500201EF0B3FAA14DFB
:1022D8000746288001201EF0ADFA9F4B68801B68D6
:1022E8001A0634D594F81C329C4ADFF878C2012BC0
:1022F8001AD19CF90A30B2F9021012885B424B439A
:102308004FF0320893FBF8FE9CF9163013FB02F3EA
:102318006FF0310293FBF2F27244B91A93FBF8F3AF
:1023280073442980184411E053889CF90A1011FB62
:1023380003F1322391FBF3F13944298011889CF988
:10234800162012FB01F292FBF3F210446880D4F8D5
:1023580020227E4B3AB994F82432002B00F0A58055
:102368001CF0DEFFA1E07E4FB7F9042012B97D49C9
:10237800002334E093F8255203F50A7985B97A4B9E
:10238800B9881A689FED790A09EB050000231C3506
:1023980020F068FCE02DF2D16C4B012283F8252255
:1023A8000025DFF8B08138F9153000EE103A1C200E
:1023B80000FB0590B8EEC00A20F09FF8FDEEC07A49
:1023C80017EE903A28F815300135082DE9D1CEE7F7
:1023D8000133082B20F80E2001F10C0111D05D48C3
:1023E800B1F9042030F91350B1F806C095424FEA0C
:1023F800430E8046ECDB0FFA8CF2AA42A8BF2A46AD
:10240800E6E75B4B1B78012B01D0192B0AD14E4B09
:102418001B885B0706D497F80990B9FA89F94FEA3F
:10242800591901E04FF0000994F85E51CDB1514BB4
:102438001D78B5B1504B93F800A000274F4A127889
:1024480007EB0A0393423D460BDCF8B2B9F1000FE3
:1024580001D0002101E038F813100AF009FD013716
:10246800ECE733689F060BD5E8B26F1CB8F800108C
:102478000AF0FEFCF8B2B8F8021002350AF0F8FCCF
:102488003368D8027FF567AFDFF80481EDB2002723
:10249800E819C0B238F8021F0AF0EAFC0D2F07F15C
:1024A80001033FF458AF1F46F2E7354B1F78002F62
:1024B80040F06C813368190340F16881314D13F0A5
:1024C800F9F82B78033B052B804689461FD82E4BFD
:1024D8009B7833B1012B09D106F020FAC0F17F00B7
:1024E80005E0D4F8080313F074FA00E03846D4F88D
:1024F8000C3394F810231344B3F5807FA8BF4FF42E
:1025080080738342D4BFC4F80C33C4F80C032B780F
:10251800023B092B00F23081DFE813F00A003C008F
:1025280078009A00B000C800D900E7000501100142
:102538000023C4F80C33C4F81433144B1B68C4F8D4
:102548001833032317E100BF5EAC00209838002041
:10255800606F00204A450020D87F002060AC002032
:102568002E470020AC8000207C7B0020F304353F00
:10257800687C002028800020298000202A800020F4
:1025880067AC0020584E0020E8460020C491002087
:10259800C2750020804B1A68D4F8183364339A4205
:1025A80040F2EA8040200DF09DFD002840F0E480D4
:1025B8004FF04008794BD4F81423794F985C1E46A5
:1025C80078B10DF051FED7F80C33013BC7F80C3346
:1025D800D7F81433B8F1010803F10103C7F814332D
:1025E800E8D1D4F814336E4FF45C002C40F0C4806A
:1025F8006C486D49D7F81C2305F0DEFD4FF0FF331A
:10260800C7F81833C7F814430423B4E045230093EC
:10261800664B019303F10C0202924920A3F10A02CE
:102628005021023305F06CFE002840F0A580336885
:1026380013F080034FF0FF3205D0C4F81403C4F838
:102648001823052397E0C4F81433C4F818232BE0A3
:10265800574A02230021009301910291482002F178
:10266800080305F04DFE002840F086804FF0FF3348
:10267800C4F81833C4F8140306237CE00B23009332
:102688004C4B019303F10C0202924720A3F108027C
:102698000021043305F034FE00286DD14FF0FF33DC
:1026A800C4F81403C4F81833072364E0424A062325
:1026B8000021009301910291532002F1080305F0D3
:1026C8001FFE002858D1C4F81403082353E005F06E
:1026D800D3FE002850D00DF049FD00284CD04FF40F
:1026E8008053A4F820330A2345E0344B1B689A032F
:1026F80016D5B4F822332A4E93B9D6F82433149356
:102708000E2014A9CDE9168905F0AAFD4FF48053CF
:10271800A6F820330A232B704046494606F032FAC1
:1027280005F07AFD28E094F82833002BF4D0234BE9
:102738001B689B03F0D409232B70F1E7164B1A682A
:10274800D4F81833C8339A4203D91D4B9E788EB9F2
:1027580004E00DF00BFD0028F7D10DE0D4F80803D4
:102768001DF029FC94F82933C4F80863022B01D121
:1027780017F0C4FF01232B700DF0E2FC30B10123E8
:102788002B7003E0F0EE477AFFF756B81DB0BDECAA
:10279800088BBDE8F08F00BFC4910020587E020866
:1027A8009838002028AD020824E10208B27E020809
:1027B800E4810208FC81020878820208D87F0020A0
:1027C800E84600206C4B6D4A2DE9F04F5E8914688D
:1027D8004FEA062AB4EB0A0A9C884FEA04481C8987
:1027E8004FF000054FF0000B65EB0B0BA4FB0A67DD
:1027F80004FB0B77F40944EA476418EB04065C8889
:102808004FF000094FEAE7154FEAC438DC8849EB76
:10281800050787B0CDE90467A4FB0A6704FB0B77BB
:10282800340A44EA076418EB04064FEA27259C8912
:102838004FF0000949EB0507CDE90067AAFB0467DB
:1028480004FB0B77F40D44EA472414F5FA664FEAC3
:10285800E75545F10007B6F5FA6F77F10003CDE9C2
:102868000267964667DAA4FB046704FB05F34FF09A
:10287800050C07EB4307DDE90489A6FB0C230CFBD9
:1028880007335F104FEA3206B8EB06084FEA9206A4
:1028980069EB070946EA83769F10DDE90023921B5E
:1028A80063EB0703DDE90267CDE90023344A4FF003
:1028B800FF33964277EB0303CDE9048928DA40F623
:1028C800AC52A4184FF000035D4104FB05F3A4FBD0
:1028D800044505EB43056FF00602664202FB0566F8
:1028E800A4FB0223334418EB020649EB0307CDE9A6
:1028F80004670B26A4FB062306FB0533DDE9004528
:102908005B104FEA3202A41A65EB0305CDE90045D6
:102918000AFB0BF3DDE90245AAFB0AAB0BEB430B01
:102928004FEADA7242EA4B02A41A4FEAEB7365EBFC
:102938000305CDE90245DEF80440009B019DA4FB98
:10294800032304FB05334FEA52584FEA635948EA18
:10295800C328DDE90423B8EB020269EB03039946B7
:10296800D30B43EA494300B1036009B1029B0B60F2
:1029780007B0BDE8F08F00BFB0710020C43B002055
:1029880024FAFFFF2DE9F04F6D4B6E4C9E682288AC
:10299800B4F810E0B4F80CC0C2EB26135200C2EB36
:1029A800E602B4F902605B435643B4F904201B13F2
:1029B80053439B1303EBE62606EB860387B080336D
:1029C8001B120493604BB4F908201B680393B6F5F7
:1029D800FA384FEAE67747F1FF39A8FB08AB08FB5E
:1029E80009F30BEB430BE3890593D31705460291D3
:1029F800B4F90A00A66108FB03F102FB0911A8FB60
:102A080002230B44C1171F030AFB01F300FB0B331E
:102A1800AAFB00011603194447EA1257020A42EAC0
:102A2800016292194FEA2123E6887B41003243F57F
:102A38000043A2FB060106FB03114B100093CB17C2
:102A48000193DDE9002313436DD00FFA8EF0BDF931
:102A58001460C1170AFB01F1AAFB002300FB0B114C
:102A6800F7170B4408FB07F106FB0911A8FB0667DB
:102A78000F4479047004801841EAD6315941039B08
:102A8800C3F5801E7246D3170FFA8CF8002212186D
:102A98004FEACE764FEAC3774FEAC8034B4147EA7D
:102AA8005E07B61A67EB030740F63543A6FB03013A
:102AB80003FB0711DDE9002320F0A0FFB4F916207D
:102AC8004E13470B47EAC14702FB06FED31707FB25
:102AD80003EEA2FB07237344564307FB0366A2FBDE
:102AE80007233344560E46EAC3168219B4F9146014
:102AF8004FEA636741EB07037143F71700FB0717BA
:102B0800A6FB00013944C60C46EA413692194FEA41
:102B1800E1474FEA1221B4F912207B4141EA0361EF
:102B280013010B4400E000230DB11B0A2B60029B2C
:102B380013B11A46049B136007B0BDE8F08F00BFBD
:102B4800C43B0020C47100201CAC002070477047B3
:102B58002DE9F043324A334F93897D89B7F90490C0
:102B6800B7F90E80B7F800E0B7F920C05D1B3B89C4
:102B78005D43EC13B7F91230B7F91450DB02254462
:102B88000A2693FBF5F52544B7F90240FD616E432B
:102B9800A5F57A6505FB05F36C4305FB09F5B7F95F
:102BA8000C90FF881B1308FB03F8E41203FB09F3DE
:102BB80004EBE8281B14042403EB65331EFB048490
:102BC8001569023304FA0CF49B1002344CF25032AB
:102BD800A5EBA40403F5004342FA0CF27B436243DD
:102BE8004FEAD33747BFB2FBF7F35B005400B4FB9F
:102BF800F7F31A1240F6DE34524362430A4C5C4340
:102C0800241404EB2242083602F6CF62361103EB95
:102C1800221300B1036001B10E60BDE8F08300BF6C
:102C2800C43B00206871002043E3FFFF4FF480534A
:102C38008381704703460122DA7653F8043C14383E
:102C480003B118477047BFF34F8F0549054BCA6852
:102C580002F4E0621343CB60BFF34F8F00BFFDE780
:102C680000ED00E00400FA05036B10B5044663B9F3
:102C7800836D99891A88890692B206D5900604D57B
:102C8800E26A2AB3988880B29047626BA36DA2B9B2
:102C980099891A88090692B20FD510060DD5A26A2D
:102CA800616A8A4222D0A1692069895C99800132CF
:102CB800B2FBF0F100FB1122A262998A1A88C905B9
:102CC80092B218D5D20716D54FF6F7721A8012E0CD
:102CD8009B88E2696169DBB28B54E369E16801337F
:102CE800B3FBF1F201FB1233E361CEE7DA6822F0BD
:102CF8008002DA60E1E710BD426A806A131A58421E
:102D0800584170474171704743799B070AD5436A18
:102D18008269D154436A01690133B3FBF1F201FBC3
:102D2800123343627047427902F0020202F0FF0355
:102D380042B10369426A806A013B101A1840C0B266
:102D4800181A704718467047437913F001031FBFDC
:102D5800C36803F1FF32C369006A1ABF181A10402A
:102D680018467047437913F0010310B504460DD097
:102D7800FFF7EAFF58B1236A6269E168D05C013362
:102D8800B3FBF1F201FB1233236210BD184610BDEC
:102D980090F8433210B57BB990F8423290F841422E
:102DA800A34209D2B0F8481201229A400A430133DB
:102DB800A0F84822DBB2F3E710BD90F82F2002F00C
:102DC800FF0322B1002380F82F30012070471846F6
:102DD800704737B50446856B94F84C1018300622B6
:102DE8006B46A847A8B19DF800209DF8013043EA3A
:102DF800022323849DF802209DF8033043EA02232E
:102E080063849DF804209DF8053043EA0223A384D7
:102E1800012003B030BD37B5044685693B21083031
:102E280006226B46A847A8B19DF800209DF80130FE
:102E380043EA0223E3819DF802209DF8033043EA28
:102E4800022323829DF804209DF8053043EA0223DB
:102E58006382012003B030BD2DE9F0410C4D0446DA
:102E68008846006816461F460AF096F848F0800122
:102E780028460AF03CFA39460022334628460AF02A
:102E880006FA20680AF08DF80120BDE8F08100BF3D
:102E980000300140F8B504460D4D006816460F464F
:102EA8000AF07AF80120002112F04EFC3946284633
:102EB8000AF01DFA314628460AF019FA20680AF085
:102EC80070F80120002112F03FFC0120F8BD00BF7E
:102ED80000300140436B2DE9F7430546002B76D0BF
:102EE80018780AF035F81423837100270823C37172
:102EF8000772394604460AF0BBF87E4B6B612046E0
:102F08000AF065F8002857DB7B4ADFF8049205F1E0
:102F1800140342F8203019F8006020460AF061F8DE
:102F2800804620460AF053F8C0B200F0030200F0D1
:102F3800FC0000F1804303F59C33920098680F2150
:102F4800914020EA0101996099685FFA88F0904001
:102F58000843986020460AF03AF8684B4FF0010E93
:102F68000EFA00F25A611868D14308401860586890
:102F780008405860186810431860986808409860BE
:102F8800D8680140D9605E490B681A435D4B0A60F6
:102F98009A5DF02A10DDF0229A5509EB060301A884
:102FA8001B7C8DF8043003238DF805308DF80670EE
:102FB8008DF807E01DF092FD20460AF008F801237D
:102FC80013FA00F01FBF4D4A1368184310604E4EA5
:102FD800377D05F11804002F67D14C484FF48071F4
:102FE8000AF006F96B2180222046FFF753FF96204E
:102FF80012F0BBFB682103222046FFF74BFF962007
:1030080012F0B3FB03226B212046FFF743FF0F208A
:10301800002112F099FB10226A212046FFF73AFF9F
:103028000F20002112F090FB3A466C212046FFF752
:1030380031FF0F20002112F087FB95F82E2019216F
:103048002046FFF727FF0F20002112F07DFB1822F2
:103058001B212046FFF71EFF0F20002112F074FBF2
:1030680010221C212046FFF715FF0F20002112F027
:103078006BFB102237212046FFF70CFF0F200021A1
:1030880012F062FB012238212046FFF703FF0F20D0
:10309800002112F059FB1D4804210AF0A9F801206B
:1030A800002112F051FB0123337518484FF4807149
:1030B8000AF09EF895F82C201A212046FFF7EAFE20
:1030C8000120002112F040FB104804210AF090F87A
:1030D8002846FFF77EFE95F92230013306D195F98F
:1030E8002030013302D1062012F078FB03B0BDE88E
:1030F800F08300BF3D2C000868530020003C0140CD
:10310800083C014054290020C43B00200030014005
:10311800A88202088379406BDB0744BFB1FA81F1CA
:10312800490909B109F03DBF09F036BF38B5A0F526
:1031380015746379A579DB0740D594F8403205F01A
:103148000105EBB1A06B0268D36A5B08536294F87F
:10315800443223B1B4F84A320133A4F84A3285F034
:1031680001011DF017FD012384F84332002384F880
:10317800413284F8423284F84032A4F8483238BDEB
:1031880094F84332012B04BF94F8413284F8423258
:103198002046FFF7FDFD94F8433233B9012384F844
:1031A8004332A06B85EA030104E00023A06B84F896
:1031B80043322946BDE838401DF0ECBC38BD10B597
:1031C800A0F5147494F84422BAB9A36A616A9942C2
:1031D80028D0591CA069A162C35C2069DBB25B00DE
:1031E80043F400738142A4F846324FF00A0384F88E
:1031F800453228BFA262012312E094F945327BB11F
:10320800B4F846124B08A4F84632204601F00101F2
:10321800FFF780FF94F84532013B84F8453201E01E
:1032280084F8443294F84032002B4AD194F8413261
:103238000133DBB2092B84F8413203D12046BDE8C3
:103248001040A5E50A2B3CD194F843322BB9B4F8C9
:10325800483243F00103A4F848326379D9071CD5F2
:10326800B4F84802820501D4C30705D4B4F84C3237
:103278000133A4F84C3210E0E36AC0F347000BB105
:1032880098470AE0E3696269D054E369E168013369
:10329800B3FBF1F201FB1233E361012284F840220F
:1032A80094F843220023012A84F8413209D1A179F4
:1032B80084F84332A06B01F00101BDE810401DF015
:1032C80069BC10BD0348D0F8AC3113B100F5D27019
:1032D800184770477C0000200348D0F8903113B19C
:1032E80000F5C470184770477C0000200348D0F8E8
:1032F800743113B100F5B670184770477C00002090
:103308000348D0F8583113B100F5A8701847704732
:103318007C0000200348D0F83C3113B100F59A70C6
:10332800184770477C0000200348D0F8203113B1BB
:1033380000F58C70184770477C0000200348D0F8CF
:1033480004310BB1FC301847704700BF7C000020E7
:103358000348D0F8E8300BB1E0301847704700BF99
:103368007C0000200348D0F8CC300BB1C43018479B
:10337800704700BF7C0000200348D0F8B0300BB184
:10338800A8301847704700BF7C0000200348D0F8D9
:1033980094300BB18C301847704700BF7C00002078
:1033A8000248836F0BB17030184770477C000020CB
:1033B8000248C36D0BB15430184770477C00002099
:1033C8000248036C0BB13830184770477C00002066
:1033D8000248436A0BB11C30184770477C00002034
:1033E8000248836803B11847704700BF7C0000207B
:1033F8000B4B984212D0A3F5806398420ED003F588
:10340800804398420AD003F58063984206D003F5BA
:10341800806398420CBF012002207047012070474A
:1034280000040140024B586FC0F30070704700BFA2
:103438000038024008B5054B1B6803B19847044B98
:10344800044A1A6072B6FFF7FEFB00BF782A002014
:10345800FCFF0120EFBEADDE08B5034B1B6803B1CE
:10346800984772B6FFF7EFFB782A00200148FFF76C
:10347800FBBB00BF580200200148FFF7F5BB00BFA7
:10348800DC0600200148FFF7EFBB00BF600B0020FF
:103498002DE9F3479946424B904603EB80020546D7
:1034A8009469002C75D03033636004F16E03A36116
:1034B80004F26E23E160E361A16E226E4FF40073A3
:1034C800236163612368E365271D09B1E2636163D2
:1034D80004332264626EA2636365A36594F86D0089
:1034E80009F036FD064694F86C0009F031FD824675
:1034F80094F8740408B11DF0B9FA94F8750408B189
:103508001DF0B4FAD4F870341BB1264A116B0B4382
:10351800136319F0080F07D007230135B371F3714E
:103528003572304612211CE018F0020F0BD0072329
:10353800B3710523F3716B1C33723046022194F882
:10354800762409F059FD18F0010F0ED007238AF8E8
:103558000630013506238AF807308AF808505046A5
:10356800022194F8762409F047FDE26B9AB994F8A1
:1035780078348DF80430D4F880348DF806209B090F
:103588008DF8053001A801238DF807301DF0A6FA43
:1035980001E0204600E0384602B0BDE8F08700BFF1
:1035A800A8820208003802402DE9F04F5C4D85B032
:1035B8001F464FF4167305F1180803FB00F4814603
:1035C8008A46009208EB040648B938201DF0FBFA39
:1035D8002C44206539201DF0F6FAC4F854014FF444
:1035E800167303FB09F3EC184E49A16108EB0302BB
:1035F800009921623C32032103F5A07343444FF044
:10360800010B6177C4F844A04FF48071D4F854A139
:10361800E262002223636162A2636263A1622264A0
:10362800E26384F85C2284F85922A4F86222A4F8A0
:103638006422A77784F858B284F8669204F5A87CC7
:103648009AF80400CDF80CC009F082FCE0649AF8FE
:10365800040009F07DFC09EB0B0A05225FFA8AFADF
:103668008271C27180F808A05946029209F000FDE3
:10367800216D0191087909F06BFC0199A064087922
:1036880009F066FC029A82710622C27180F808A0CD
:10369800222109F0EDFC30465946FFF73BFD322068
:1036A80012F063F8204BDDF80CC01B68DCF804A0AE
:1036B8001A460099B2FBF1F1B1F5803F03D3012A14
:1036C800F7D95208F5E7504689B2184AB3FBF2F227
:1036D800D2B211F0B1FF4FF4167000FB09F00544A7
:1036E80000F51470124BC5F8683208EB0004214647
:1036F8005046002211F000FF05F51A792D6D07F0EC
:10370800010128461DF046FA0A4BC9F8043028463C
:10371800211D002211F0F0FE304605B0BDE8F08F03
:10372800C43B002000830208F41E002040420F0022
:10373800C73100083531000803460A4690F84E02A2
:10374800D96A9B7930E72DE9F0435C4FC50007EB58
:10375800050985B0064699F8040009F0F9FB80468A
:1037680099F8050009F0F4FB044699F806001DF0E5
:103778007DF9731CDBB20D22092188F8083088F81E
:10378800062088F80710A2710A222372E2714046C7
:103798003A21042209F030FC20463A21042209F09B
:1037A8002BFC57F83640464B9C4209D103F5F233BF
:1037B8001A6A42F400121A621A6A22F4001218E015
:1037C800404B9C4209D103F5F0331A6A42F4800257
:1037D8001A621A6A22F480020BE03B4B9C4209D120
:1037E80003F5EE331A6A42F400021A621A6A22F4E6
:1037F80000021A623D44354B95F80780A588344A83
:1038080025F03F052D0468462D0CB8F1000F14BFB4
:103818009046984617F0E2FE02992E4BB1FBF3F35F
:103828001D43ADB2A580228822F001021204120CB9
:1038380008EB4808B1FBF8F8B8F1000F22801FFA2E
:1038480088F208BF012242F400414FF496725343B4
:103858004FF47A7293FBF2F301339BB22384A18372
:10386800238857F836209BB243F00103238023882E
:1038780023F4816323F002031B041B0C43F48063CD
:1038880023804FF480432381138823F080031B0493
:103898001B0C138013889BB243F0010313800E4A5C
:1038A800182303FB062303F51C7283F870620123B7
:1038B80053700023937005B0BDE8F083000000202A
:1038C8000054004000580040005C0040801A060088
:1038D80000350C0040420F00C43B00202DE9F84F92
:1038E8000646BD4ABD4DD36843F08073D360BC4BD8
:1038F800BC4A5F68182303FB065191F9700291F8DE
:10390800721252F830400139142900F2B482DFE80B
:1039180011F07E008F00A700BB00C700D300DD00B8
:10392800F600030110011C0177019201C801310260
:1039380044024E0258028002A202150003FB06F45C
:10394800DFF8B89219F9048002EBC8084FF0090BA8
:1039580098F8040009F0FCFA074698F8050009F001
:10396800F7FAA14A138801339BB280463846138080
:1039780009F017FB404609F014FB3846112109F0FD
:1039880077FB4046112109F073FB4FF0650A384672
:1039980009F014FB38B9BAF1010A04D00520002156
:1039A80011F0D2FEF3E7384609F0F6FA00210520B7
:1039B80011F0CAFE384609F0F4FA0520002111F08A
:1039C800C3FEBBF1010BE0D1384609F0E5FA00214E
:1039D800052011F0B9FE404609F0DEFA0021052065
:1039E80011F0B2FE384609F0DCFA0520002111F08A
:1039F800ABFE404609F0D5FA19F90400431C01D082
:103A0800FFF7A1FE182303FB0653002231E22388A7
:103A180003F4007318249BB204FB0654002B00F037
:103A2800E481D4F87402002104F51C74381AE4E126
:103A3800238823F400631B041B0C238023889BB278
:103A480043F48063238023889BB243F480732380EC
:103A5800182303FB0653032283F87222C3F87472F7
:103A68002046624917F0DCFC1824014604FB065482
:103A7800002800F0BD8194F8793204F51C740BB964
:103A88000423C4E10F23C2E103FB065393F8782211
:103A980002F0FE022282052283F87222C3F87472B1
:103AA8002046534917F0BCFC002800F094811823E5
:103AB80003FB06530622DCE103FB065393F87A2244
:103AC8002282072283F87222C3F874722046494979
:103AD80017F0A6FC002800F07E81182303FB06538C
:103AE80003F51C73DA683AB9228892B242F400727C
:103AF80022805F60012200E008229A70BBE12388DF
:103B08009BB243F480732380182303FB06530922D6
:103B180083F87222C3F874722046344917F080FC87
:103B28001824014604FB0654002800F061810A238A
:103B38005BE103FB065393F8782242F001022282EC
:103B48000B2283F87222C3F8747220462A4917F0B0
:103B580067FC002800F03F81182303FB065303F598
:103B68001C73DA68012A15D1228822F480621204B3
:103B7800120C2280EFF31182102181F31288218B1D
:103B8800218889B241F400712180D2B282F3118870
:103B98000C2219E0022A15D1228892B242F400625E
:103BA8002280EFF31181102282F31288228B22885F
:103BB80022F480621204120C2280CAB282F31188A5
:103BC8000D2201E0228B0E229A70182303FB065364
:103BD800C3F874724FE100BFF0ED00E0C43B002071
:103BE800001000E00000002048450020010003000C
:103BF800820007008400070002000300343E002012
:103C0800A249204617F0F2FB1823014603FB06538E
:103C1800002800F0AA80D3F88022511CC3F8801233
:103C2800218A1170D3F87C22013AC3F87C22012240
:103C380083F884222EE09649204617F0D7FB0146E8
:103C480058B3EFF31182102383F3128823889BB2B1
:103C580043F400732380182303FB065303F52070F5
:103C6800D3F8801201F1010EC3F880E2B4F810E035
:103C780081F800E0D2B282F31188D3F88022511C77
:103C8800C3F88012218A11706FF00102C3F87C22F8
:103C980001220271C3F87472EBE0182404FB065485
:103CA800A6E07B49204617F0A1FB1823014603FB39
:103CB8000653002859D003F51E704268032A03F5FD
:103CC800207E03F51C712ED1228822F48062120412
:103CD800120C2280EFF311824FF0100E8EF312882F
:103CE800D3F880E20EF1010CC3F880C2B4F810C01A
:103CF8008EF800C0B4F800E01FFA8EFE4EF4007E85
:103D0800A4F800E0D2B282F31188D3F8802202F13D
:103D1800010EC3F880E2238A13704368023B4360B4
:103D28000C238B701FE0022A12D8238823F48063A7
:103D38001B041B0C238023889BB243F4007323804D
:103D4800238A4F6000238EF8043001238B7092E0A1
:103D5800D3F8802202F1010EC3F880E2238A13709F
:103D68004368013B43604F6085E003F51C74D3F85A
:103D7800740241E0238823F480631B041B0C238016
:103D8800182303FB065393F8782202F0FE022282DE
:103D9800102283F87222C3F8747220463D4917F046
:103DA8003FFBC0B1182303FB0653112261E003FB5C
:103DB800065393F87A222282122283F87222C3F8D9
:103DC80074722046344917F02BFB20B1182303FBEB
:103DD800065313224DE02046304917F007FB1824FC
:103DE800014604FB065418B1142384F8723242E0E9
:103DF800D4F8740204F51C74381A294BD3E900234B
:103E08001FF018FE42F20F73984234DD1523A37099
:103E180031E003FB065303F51E71D3F87C0203F56A
:103E28001C7278B1D3F8800200782082D3F880021F
:103E380057600130C3F88002D3F87C32013B4B60F5
:103E4800122306E023889BB243F400732380576053
:103E5800012393700FE023889BB243F400732380FF
:103E68004FF6FF33A382182303FB06530122C3F83E
:103E7800747283F87222182303FB065595F8723280
:103E8800002B7FF42EADBDE8F88F00BF4000001076
:103E980004000010820007008400070000040010DE
:103EA800C861002070B50F4D182404FB005494F825
:103EB8007152ADB1C4F87C32049B84F87A2249006F
:103EC8000022C4F88032022384F8781284F8792218
:103ED80084F8842284F87232FFF700FD94F8845243
:103EE800284670BDC43B00201FB502AB04460093B2
:103EF80001201E2103220623FFF7D4FF18B9E08111
:103F0800208260823DE09DF808209DF809309DF8E8
:103F18000A1043EA02231BB21B4A07EE903A92EDBD
:103F2800007AF8EEE77A012067EE877A92ED027A56
:103F3800FDEEE77A17EE903AE3819DF80B3043EAFD
:103F480001231BB207EE903AF8EEE77A9DF80C10C1
:103F580067EE877A92ED017AFDEEE77A17EE903AEE
:103F680063829DF80D3043EA01231BB207EE903AB5
:103F7800F8EEE77A67EE877AFDEEE77A17EE903A81
:103F8800238204B010BD00BF0C1000201FB503AB86
:103F980000937721002203230120FFF783FF9DF878
:103FA8000D309DF80C001B0243EA00439DF80E00FB
:103FB800184305B05DF804FB08B5FFF7E7FF014BB0
:103FC800586008BDC43B002008B5FFF7DFFF014B70
:103FD800186008BDC43B00201FB502AB00937621D2
:103FE8000120F7220623FFF75DFF144C1449E0B1C6
:103FF8009DF808209DF809309DF80C00120342EA4C
:1040080003139DF80A2043EA12129DF80B30226030
:104018001B0343EA00139DF80D00C1F8B82243EAD8
:1040280010138B60C1F8BC3205E0D1F8B8322360B8
:10403800D1F8BC328B6004B010BD00BF1CAC0020AE
:10404800C43B00201FB503AB00937721F62203235E
:104058000120FFF727FF9DF80D309DF80C201B026B
:1040680043EA02439DF80E201343054AB2F9202083
:10407800C2F10802D340034A136105B05DF804FB9E
:1040880068710020C43B00201FB503AB0093772163
:10409800F62202230120FFF705FF9DF80C209DF86A
:1040A8000D3043EA0223024A938105B05DF804FB10
:1040B800C43B002037B50D461446009368212A46B4
:1040C80023460120FFF7EEFE03B030BDF8B5114DD1
:1040D800182404FB005494F87162CEB185F8C032FC
:1040E8000023490084F87A2284F8843201220223CA
:1040F80005F5307584F8781284F87922C4F87C22A2
:10410800C4F8805284F87232FFF7E8FB94F88462AE
:104118003046F8BDC43B002030B5002387B0C381CA
:104128000382438204460DF10F05012000950C21FE
:1041380002220346FFF7B6FE08B900203EE09DF8CC
:104148000F30DB07F9D504AB00930C2103220623BB
:104158000120FFF7A7FE012000950C210922034644
:10416800FFF7A0FE0028E8D09DF80F3013F00C0FE1
:10417800E3D19DF811209DF8103043EA0223C3EBE8
:1041880083339B009DF81320E3819DF8123043EAA6
:104198000223C3EB83339B009DF8152023829DF8EF
:1041A800143043EA0223C3EB83339B00012063826C
:1041B8000C210A220346FFF789FF012007B030BD12
:1041C8001FB50C210A2200230120FFF77FFF1420CE
:1041D80011F0CBFA0C210A220F230120FFF776FFFA
:1041E8000A2011F0C2FA03AB00930C21102203231A
:1041F8000120FFF757FE0A2011F0B7FA0C210A2216
:1042080000230120FFF762FF0A2011F0AEFA0DF13A
:104218000B04012000940C2102220346FFF742FE02
:10422800012000940C2109220346FFF73BFE0120E0
:104238000C210A220346FFF749FF012004B010BDF4
:104248007FB5054602AE0120034600960C210222E6
:10425800FFF728FE2D4C9DF8083008B9002051E0E2
:10426800DA07FBD50723009601200C210322FFF76C
:1042780019FE9DF80E300028F0D09B07EED19DF86E
:1042880009209DF808309DF80B1043EA02231BB261
:104298001F4A07EE903A92ED007AF8EEE77A01208D
:1042A80067EE877A92ED017AFDEEE77A17EE903A9B
:1042B800EB819DF80A3043EA01231BB207EE903ADE
:1042C800F8EEE77A9DF80D1067EE877A92ED027A9C
:1042D800FDEEE77A0A2217EE903A2B829DF80C3011
:1042E80043EA01231BB207EE903AF8EEE77A0C2175
:1042F80067EE877AFDEEE77A17EE903A6B8203460F
:10430800FFF7E4FE84F8C10204B070BDC43B00208E
:10431800E00F00201FB50C210A2200230120FFF71F
:10432800D5FE142011F021FA0C210A220F230120B6
:10433800FFF7CCFE0A2011F018FA03AB00930C210A
:10434800102203230120FFF7ADFD0A2011F00DFA1A
:104358009DF90C209FED2B5ADFED2B5A2B4B06EEC7
:10436800902AF8EEE66AF7EE007A76EEC56A9DF9CD
:104378000D20B0EE677AA6EEA57A0C21012006EE94
:10438800902AB3EE0E6AF8EEE66A27EE067A76EE23
:10439800C56A83ED007AB0EE677AA6EEA57A9DF934
:1043A8000E200DF10B0427EE067A83ED017A07EE55
:1043B800102AB8EEC77A0A2237EE457AE7EE257A50
:1043C80067EE867AC3ED027A0023FFF77FFE0A20A4
:1043D80011F0CBF9012000940C2102220346FFF7CB
:1043E80061FD012000940C2109220346FFF75AFDC4
:1043F80001200C210A220346FFF768FE012004B0C1
:1044080010BD00BF000000430000803BE00F00200B
:10441800012077214822034658E6012077215822B7
:10442800034653E601207621F42231234EE6054B5C
:1044380093F820309B01343301207721F42203F0D4
:10444800FC0343E66871002001207721F4222E2323
:104458003CE610B50C461346012022466821BDE80B
:10446800104033E682B00023404A0093019313685A
:1044780043F4803313603D4B1A6802F40032019212
:10448800009A01320092019A1AB9009AB2F5A04F27
:10449800F1D11B6813F4003318BF01230193019B6A
:1044A800012B30D1314B32491A6C42F080521A64D8
:1044B8000A6842F440420A609A689A609A6842F42C
:1044C80000429A609A6842F4A0529A60294A5A6057
:1044D8001A6842F080721A601968244A8901FBD56B
:1044E800254B40F205711960936823F0030393602C
:1044F800936843F0020393601C4A936803F00C032B
:10450800082BF9D101E000BFFDE793681B4903F0D0
:104518000C03042B03D0082B03D0194B18E0194BBC
:1045280016E05068536810F4800F03F03F0350689A
:1045380014BF144A124AB2FBF3F30C4A5268C2F38E
:104548000142C0F38810013243435200B3FBF2F337
:104558000B60064B0C4A9B68C3F30313134493F890
:10456800982D0B68D3400B6002B0704700380240AA
:104578000070004008544007003C0240F41E002030
:104588000024F40000127A005402002010B5104CE8
:10459800D4F8883043F47003C4F888300D4B1A6897
:1045A800002142F001021A6099601A6822F08472B0
:1045B80022F480321A60084A5A601A6822F480226B
:1045C8001A60D960FFF74EFF4FF00063A36010BD7B
:1045D80000ED00E000380240103000242DE9F04FD3
:1045E8002DED028B99B0CDE9020111F0BCFAB24B66
:1045F8001B78002B41F08F87B04E33685A0541F184
:104608008A87AF4C2378002B00F0F681AD496368A8
:104618000A68D31A7C2B884640F2EE81237AAA4D89
:104628006260013323720327C7F12700C0B211F07B
:1046380071FE55F8040F4FF47A735843A34B9B89C6
:1046480090FBF3F000B211F053FE013FECD1A04D06
:10465800302011F05FFE95ED450A22F08FFA00B286
:1046680011F046FE11F04EFE237A9B0733D1944B8E
:104678005A6841F288339A421AD9D5ED427AFDEE4A
:10468800E77A102017EE907A4FF0640911F042FE95
:1046980097FBF9F528B211F02BFE212011F03AFE14
:1046A80009FB15700028B8BF404200B211F020FE87
:1046B800142011F02FFE874BB3F904000A2390FB56
:1046C800F3F011F015FE1C2011F024FE002011F06B
:1046D8000FFE11F017FE237A5D0740F06981022072
:1046E80011F018FE7C4BD8696423323090FBF3F04C
:1046F80000B211F0FDFD794B0320B3F9065011F01B
:1047080009FE774B1B8858074FF0050795FBF7F50F
:10471800ADB209D518F070FE20B9336813F0100F48
:1047280018BF002528B204E06E4B9889B0FBF7F05B
:1047380000B211F0DDFD3368990767D56A4F6589C6
:104748006A4E397832882D016423ADB203FB021218
:104758004B00B2FBF3F345EA0325ADB2C3F30323E1
:104768001D43062011F0D6FD28B211F0C1FD638962
:104778003A7801339BB293FBF2F102FB1133638168
:10478800237E012B05D1392011F0C4FDB6F90000B4
:104798001FE035886E236B43152593FBF5F5484BD1
:1047A8005B7EADB20BB195FBF2F53A2011F0B2FD8C
:1047B8006427B5FBF7F630B211F09AFD07FB1655E2
:1047C8003B2011F0A7FDA8B2451D0A2095FBF0F08B
:1047D80000B211F08DFD282011F09CFD444B0A20F9
:1047E8001B6893FBF0F000B211F082FD042011F079
:1047F80091FD3C4B9B8913B114F0D0F903E03D4B7C
:10480800186880F3100000B211F072FD3A4B1B6873
:104818005A0640F1C280394F394E3B6813F0020FF7
:104828001DD0112011F076FD308C364B4FF4F36516
:1048380010FB05F090FBF3F000B211F059FD1920C0
:1048480011F068FD308C10FB05F5642095FBF0F540
:1048580095FBF0F300FB135000B211F049FD3868E6
:10486800336910F0020518BF64254FF001001CBF22
:1048780093FBF5F5ADB211F04DFD28B211F038FDFE
:10488800092011F047FD002011F032FD328D7579B5
:10489800B2F5967F09D9237A03F00F03072B04D8C2
:1048A80042F20F75954228BF1546052011F032FDDA
:1048B800E37D5BBB28B246E067AC0020606F002058
:1048C800883E0020C49100201C700020EC6F00205E
:1048D800509D002060AC00208C710020407B00209F
:1048E8005EAC0020CA6F002058280020DC6F002032
:1048F8005C450020D86F00205C6F0020DC7F002022
:10490800E07F0020A08601006666E63FA5F120034F
:1049180007EE903A1FED047AF8EEE77AF6EE006AB1
:10492800C7EE877ABEEE007AF5EEC07AF1EE10FA9D
:1049380058BFB0EE667A77EE877AFDEEE77ACDED6E
:10494800057ABDF9140011F0D3FC002308930993EC
:104958003B689B0704D494F82020B44B012A08D163
:10496800012384F82030B3680893F368099308A8F2
:104978001AE0DFEDAF6A93ED037AD3ED047A27EE00
:10498800267A67EEA67ABDEEC77AFDEEE77A8DED58
:104998000E7ACDED0F7A0EA806E0A64A92E803003B
:1049A8000EAB83E80300184611F0C4FC11F0AAFC12
:1049B800237A282B20D19D4BD8F8000000221A72A8
:1049C8003C274FF47A73B0FBF3F6172011F0A2FCE2
:1049D800B6FBF7F5B5FBF7F007FB1050000200B285
:1049E80011F086FC182011F095FC07FB156000B249
:1049F80011F07EFC11F086FC94F82130002B00F0B9
:104A08001B828A4C94F822302646042B00F214822A
:104A1800DFE813F005001100CD01E301BD01606A74
:104A280010F0DAFF002800F00782804B00229A621B
:104A3800012001F08CBBD4E90C23DDE90201801AC6
:104A480061EB0301002908BFB0F57A6F0ED311F0AE
:104A580031FC0020D8E1BD6A012D0DDC6B1C786AA1
:104A6800BB6210F0B3FF3D4485F83800706A6F4FA1
:104A780010F0B2FF0028EED1A26A6C4B012A40F375
:104A8800DB8193F8382012F07F0140F07C8193F8A5
:104A980039208A2A04D08E2A00F0E88001F056BB1B
:104AA800654A1268550641F151836449DFED647A1D
:104AB8004A7983F85420634ADFED636A92ED457AB8
:104AC80077EE277AF4EEE67AF1EE10FA48BFF0EEC8
:104AD800667AFDEEE77A17EE902AF0EE087A27EE6E
:104AE800277ADFED5A7A84F8512087EE277A121256
:104AF80084F85220DFED567A77EE277AF4EEE67ADC
:104B0800F1EE10FA48BFF0EE667AFDEEE77A17EE9E
:104B1800902A84F853204F4A1268940703D42D2210
:104B280083F8552079E00A79D1F808E0DFF838C130
:104B38004948CE68022A0CBF3322322283F8552016
:104B48009EFBF0F30CFB03E503EB8303434A96FB60
:104B5800F0F0062703EB83037D439B0095FBF2F8F7
:104B680002FB185543FA88F8304B0CFB006C00EB3D
:104B78008000642407FB0CF795FBF4F500EB80003C
:104B880083F846502D1283F84750800097FBF2F5C2
:104B980002FB157292FBF4F283F84B20121240FAD2
:104BA80085F083F84C20B1F9202080B283F84900C1
:104BB80002EBC202000A83F84A0092004FF47A70AE
:104BC80092FBF0F283F84120C2F3072283F84220D7
:104BD800234A128883F84D20120A83F84E200A6966
:104BE80092FBF4F202F5FA7292B283F84F20120A9D
:104BF80083F850201B4A1FFA88F84FEADE7E83F8B4
:104C08004480F60F4FEA1828128883F843E083F8A7
:104C1800458083F8486083F85620044B03F13A0234
:104C28009A662C2283F86C2001F08EBA883E002008
:104C38008096184B288302085C6F0020E07F0020D4
:104C48000060EA46509D0020000000000000C842B5
:104C58000000F042DC7F00208096980040420F0060
:104C6800E2450020E4450020806967FFB84AB9485A
:104C7800128883F86F1083F87110D1B2120A83F882
:104C88008B1083F88C2083F8811083F88220D3F866
:104C98009C1002689D7E511A4FF47A726A439142C1
:104CA8000DD30268C3F89C2093F8A020013A012A8A
:104CB8009FBF102283F86F20022283F87120A64B31
:104CC8009FEDA66A1A689FEDA67ADFEDA66AA64B45
:104CD8000A2192FBF1F284F88920121284F88A20C2
:104CE800A24A1B68D2ED427A93FBF1F3C7EE867AAB
:104CF80084F88D301B1284F88E3077EE877A92ED27
:104D0800457AF4EEE67AF1EE10FA48BFF0EE667AEC
:104D1800FDEEE77A17EE903ADFED957A84F8873062
:104D280077EE277A1B12F4EEE67AF1EE10FA48BF16
:104D3800F0EE667AFDEEE77A84F8883017EE903A5E
:104D4800F0EE087A27EE277ADFED8A7A84F88F303A
:104D580087EE067A1B1284F8903077EE277AF4EE05
:104D6800E67AF1EE10FA48BFF0EE667AFDEEE77AE1
:104D780017EE903A84F891307F4BA3662C2384F881
:104D88006C3001F0E1B97F2A0DD101F0DFB9D4E927
:104D98000C23DDE90201801A61EB0301002908BF39
:104DA800B0F5FA6F48D311F085FA01F0CFB9D4E91C
:104DB8000C23DDE90201801A61EB03010B46002197
:104DC8000246994241F2873008BF904234D26B4B79
:104DD800002283F8A120032016E0DDE90223002B3E
:104DE80008BFB2F5FA6F27D396F86C10634C96F8A3
:104DF800A12096F8A23061B90133606A84F8A23024
:104E0800114607F0C3FF0420DDE9022311F060FA20
:104E180012E0A16E606A097801330A4484F8A2306E
:104E280084F8A12007F0B2FFA36E0133A36694F8BB
:104E38006C30013B84F86C30504C464B94F8A320FE
:104E48001E689A46002A00F04282D4F8A430002B4B
:104E580000F03D8294F8A830013B012B00F2378224
:104E6800D4F8A400454D10F0B7FDE0B1D5F8A40082
:104E780010F0ACFD95F8A930DAF800807E2B0746D3
:104E88000ED102231B2885F8A83009D1D5F8A40033
:104E980010F0A2FD20B90123C5F8AC8085F8B03028
:104EA80084F8A970DCE7D5F8AC20DAF800309B1A52
:104EB80041F65832934227D9032385F8A83006E2F1
:104EC8002F4A32F8135015B92B464FF403650133B6
:104ED800B5F5E06FDBB200F0618127D9B5F5026F57
:104EE80000F0948140F29880B5F5046F00F04C8191
:104EF80000F2A280B5F5036F0AD184F8B130214BD6
:104F08001B68580600F1A18094F8B01094F8B130ED
:104F1800002900F0DA81DAF80020921B012ACFD9A3
:104F280084F8B130002384F8B030D0E1B5F5047FBF
:104F380000F0A98028D8B5F5887F00F01681B5F56E
:104F4800007F00F0B580B5F5807FE1D1BEE000BFFD
:104F5800DC6F0020C49100205C4500200000C8429E
:104F68000000FA4300000000D86F0020509D002088
:104F78000060EA460000F042F53E0020883E00202E
:104F8800E6AE02085C6F0020B5F5826F00F016816E
:104F98003BD8B5F5806FBBD184F8B130AE4B1A88D9
:104FA80042F2107312F0010F42F2117108BF194654
:104FB8009307AA4B1B6848BF0231550748BF043105
:104FC800D80748BF0A319A0748BF14311D0548BFA2
:104FD8002831D80548BF28315A0748BF64311D0712
:104FE80048BFC831980648BF01F5C871DA0648BFFE
:104FF80001F57A71DD0448BF01F5FA61580648BF2A
:1050080001F57A614FF48060A9E0B5F5846F2AD084
:10501800B5F5C06F65D07BE7B5F5E46F00F0C380E8
:10502800B5F5006F68D0B5F5E26F7FF471AF8C4AC3
:1050380084F8B130916BBAE0B5F5116F00F02E81AC
:10504800B5F5206F00F0F28062E7864B1B68990780
:105058007FF55AAF844B198C4FF4F36311FB03F3BC
:105068002846642128E184F8B130804B1B685A0631
:105078007FF54AAF7B4B1B689B077FF545AF7C4BA1
:10508800284619881AE184F8B1307A4B1B689807CA
:105098007FF53AAF784B5A7E784B1B881AB1784A1D
:1050A800117893FBF1F30A214FF40470594356E049
:1050B80084F8B1306F4B1B6819057FF525AF714B2C
:1050C800284619680A2391FBF3F1F7E084F8B13018
:1050D800664B1B685A077FF517AF6B4BD3ED427AC7
:1050E800B4E084F8B130634B1B681B057FF50CAF47
:1050F800664B28461968E1E05C4A84F8B1301268CA
:1051080050067FF501AF574A126891077FF5FCAE4C
:1051180013F0010F544B11D0DA6882EAE273A3EB63
:10512800E273002A4FF0190103EB5303B3FBF1F3C9
:1051380043F0004111DA43F040410EE09B6883EAF6
:10514800E371A1EBE371002B01EB51014FF0190260
:10515800B1FBF2F1B8BF41F080414FF4006010F0AC
:10516800A3FE002384F8B030CEE684F8B1303F4B7C
:105178001B685A077FF5C8AE434B93ED450A21F0EB
:10518800FDFC0146284699E084F8B130404BB3F95C
:10519800041001EB810128464900E0E7304A84F811
:1051A800B130516B03E02E4A84F8B130D16B6423DF
:1051B8004B432846918993FBF1F1D0E784F8B1304D
:1051C8002A4B1F6817F0400713D0264B1A6812F0B5
:1051D800020F14BF4FF47A71002112F0010F224A16
:1051E80014BF4FF4FA6300230B445179284619443D
:1051F800B5E7204B1B681A067FF586AE2846394668
:1052080010F052FE1C4B83F8B0707DE684F8B13084
:10521800164B1B685B067FF577AE124B1B68980729
:105228007FF572AE104B2846196947E084F8B13013
:105238000E4B1B6899067FF567AE164B9FED167AE5
:10524800D3ED047AF8EEE77A67EE877AFCEEE77A30
:10525800284617EE901A31E05EAC0020507B002003
:10526800EC6F0020DC7F0020E07F00205C6F0020D6
:10527800E2450020606F0020883E0020DC6F00209F
:10528800582800205C450020509D0020D86F002041
:1052980060AC0020F0710020B80C473E84F8B130B3
:1052A800934B1B689A077FF52FAE924B924A198849
:1052B8000A234B431178284693FBF1F110F0F4FDD3
:1052C8008E4B002283F8B0201EE684F8B13094F8A3
:1052D800B2208A4B002A00F0A181D3F8B420002A1A
:1052E80000F09C81DAF80060D3F8B820B21A632A7B
:1052F80040F2948193F8C020D3F8BC309D5CEB0752
:1053080025D50EA810F090FE0E9BDFF808825A1CD7
:105318000E9241221A700A27B8F9021091FBF7F190
:105328000EA889B210F075FEB8F9001091FBF7F1DC
:105338000EA889B210F06DFEB8F9041091FBF7F1D0
:105348000EA889B210F065FE0EA810F02BFEA80773
:1053580051D50EA810F068FE694BDFF8B0B11F6890
:1053680017F040071AD09BF8043043B1012B09D03D
:10537800022B14BF4FF000094FF0030904E04FF06F
:10538800010901E04FF00209BBF92070DBF80810B1
:10539800DBF80C30642297FBF2F702E03B46394613
:1053A800B946584A059392ED428A0E9A0DF1600863
:1053B800501C48F8280D47201070404610F014FE85
:1053C800059B40461946BDEEC88A10F00DFE4046C2
:1053D800F9B210F0FDFD404618EE101A10F004FE68
:1053E8009BF8051049EA81014046C9B210F0F0FD6A
:1053F800404610F0D7FD290724D50EA810F014FE5A
:105408000E9B5A1C0E924F221A700EA8D4F8C41084
:1054180010F0EAFD0EA8D4F8C81010F0E5FD0EA8AB
:10542800D4F8CC1010F0E0FD0EA8012110F0D0FD4A
:10543800354B19680EA801F0010110F0C9FD0EA83E
:1054480010F0B0FDAA062AD50EA810F0EDFD13F055
:1054580081FA0E9B5A1C0E9258221A702B4B074643
:10546800198D0EA810F0D5FD87F001010EA8C9B25C
:1054780010F0AEFD94F8D0700EA8394610F0A8FDD3
:105488000EA894F8D11010F0A3FD0EA8002110F07A
:105498009FFD01370EA884F8D07010F083FD6B07CC
:1054A80040F18A800EA810F0BFFD194B1B68D80583
:1054B80012D4D90412D4DA0612D4980612D41907D1
:1054C80012D413F0440F11D1DA0725D413F0020FC8
:1054D80014BF0327012720E000271EE00A271CE04D
:1054E8000D271AE0092718E0082716E00B2714E013
:1054F800606F0020DC6F002058280020883E0020C4
:105508005C6F0020509D0020DC7F0020E07F0020A1
:10551800507B002060AC00200227B34BB3F800801A
:10552800B24BDB78C8F380081BB148F002085FFA79
:1055380088F80E9B5A1C0E9253221A70AC4B19888D
:1055480001EB810101EB8101890089B20EA810F0FD
:1055580060FDA84B196881F310010EA889B210F0FC
:1055680058FDA54B1988FE2359430EA840F2FF3376
:1055780091FBF3F1C9B210F02BFDA04B196811F0A3
:1055880020010ED09E4B9FED9F7AD3ED047AF8EE62
:10559800E77AC7EE877AFCEEE77ACDED057A9DF8D3
:1055A80014100EA810F014FD0EA848EA870110F098
:1055B8000FFD0EA810F0F6FCEF0623D50EA810F08C
:1055C80033FD0E9B904D5A1C0E924E221A700EA857
:1055D800297810F0FDFC0EA8697810F0F9FC0EA8E7
:1055E800697910F0F5FC0EA8297910F0F1FC0EA8E5
:1055F800A97810F0EDFC0EA8E97810F0E9FC0EA8E7
:1056080010F0D0FC94F8C030C4F8B86001330A2117
:1056180093FBF1F201FB123384F8C03094F8D2B056
:10562800BBF1000F00F00984784BD3F8D430002B7D
:1056380000F00384D4F8D40010F0CEF9002800F06C
:105648000081724B724DD3F8D40010F0BFF9EA789C
:10565800002307462B700A2A7ED8DFE802F00606E8
:1056680016261E2D34404F646400FE2874D1022390
:10567800EB70002384F8DB304FF0FF3384F8DA0056
:1056880084F8D83084F8D93066E02B7184F8DB00D0
:10569800604910F079FC042305E084F8DC005D49DA
:1056A80010F072FC0323EB7056E084F8DD005949D2
:1056B80010F06AFC0523F6E784F8DE00554910F07F
:1056C80063FC0623EFE784F8DF00524910F05CFC26
:1056D80094F8DB300BB90823E5E70723E3E72B79D8
:1056E8004C495A1C23442A7183F8E00010F04CFC02
:1056F8002A7994F8DB309A422ED1ECE794F8DF301F
:10570800454A44491344187A10F03EFCB4F8D8309E
:10571800DBB29F4214BF0A230923EB702B79234481
:1057280083F8E07018E00A2A05D0B4F8D82083B2CC
:10573800B3EB122F01D0022300E001232B700123C9
:10574800EB702B7935482344A0F5886183F8E17024
:105758004FF4887220F0AEFF95F800802C4AB8F11B
:10576800010F07D194F8DC305371138903B95381C1
:1057780001332B816879EA7894F8DB3084F82B269A
:10578800013084F82D0628892A79A4F830064FF0CC
:105798000009A8781D4E84F81B35B8F1020F1C4982
:1057A80084F82C26A4F8320685F8029038D1B3186C
:1057B800FE2F93F8E12093F8E03081F8009043EA57
:1057C8000223A6F818354FF001038B7040F0C5840A
:1057D8004FF0FF3381F8038086F8DB9086F8D830E5
:1057E80086F8D93026E700BF5EAC0020747500202B
:1057F800DC6F0020D86F00205A4500205C6F002025
:10580800F07100200000C842E6450020883E0020D4
:105818000AA60020603F002028830208A043002039
:10582800B8F1010F7FF406AF96F81F25282A00F07B
:10583800EB8500F2C784002A3FF4FCAE272A00F06B
:105848001285824901F5C863D3E90023DDE90267BF
:10585800B61A67EB03073B46002732469F4244F6D9
:105868001F6608BF964280F0E88291F83C36002B0C
:1058780040F0DB82022010F06DFB002868D0744BEA
:105888001B6849F6074213F0080F48F6034518BF8E
:105898001546590744BF45F4005545F008055A0612
:1058A8006C4B1B6844BF45F4804545F0200513F058
:1058B80002021FBF68490E8806EB860606EB8606BD
:1058C8001ABFB600B6B216461B0548BF634BC5F3F0
:1058D80009074CBFB3F800804FF6FF781AB113F0F0
:1058E80083F9C0B200E064200023ADF84430ADF87D
:1058F8004A30ADF84C30ADF84E30ADF85030ADF818
:105908005230ADF85430564BADF846600E950F95B1
:105918001097ADF848808DF856000EAA14AE1546BB
:1059280003CDB542186059602A4603F10803F6D141
:1059380028681860A988AA799A719980494B01202A
:10594800D871FA211F227C231BF0ACFB10F0E0FA7F
:10595800032010F0FFFA002861D0434BDAF80090DA
:105968001B78002B00F0FC83404A012BB2F800E0C2
:1059780040F2F783022B558800F0F483032BB2F82A
:1059880004C000F0F183042BD68800F0EE83052BC9
:10599800178900F0EB83062BB2F80A8000F0E88341
:1059A800072B918914BFD2890022314BADF84A20C8
:1059B8001B88ADF842600022C3EB032340F2FF309E
:1059C80093FBF0F38DF84D30254B8DF84C20CDF836
:1059D8003890ADF83CE0ADF83E50ADF840C0ADF8B9
:1059E8004470ADF84680ADF848100EAA12AE1546C0
:1059F80003CDB542186059602A4603F10803F6D171
:105A080028681860AA889A80164B2322DA71FA212E
:105A18001622F42301201BF045FB10F079FA06202A
:105A280010F098FA002800F0C480094B1B685D0646
:105A380040F1BF800F4D2B7933B1012B1CD0022BC5
:105A480014BF0020032018E0012016E0883E002043
:105A58005C6F0020606F0020DC6F00205C45002038
:105A680002A50020FAA40020A8750020BC7500201B
:105A78005A450020E07F0020022005F108010EC9E8
:105A88000A265E436B8C2F8CB5F824C0B5F826E047
:105A980095F805B0119203EB83035B00DDE90289F9
:105AA800ADF85230C04B12960EAACDE90E89ADF86A
:105AB80050701091ADF84CC0ADF84EE08DF8540020
:105AC8008DF855B00DF1500816461F469646BEE8AB
